:020000040800F2
:1000000000100020B107000835040008370400087C
:10001000390400083B0400083D040008000000000B
:100020000000000000000000000000003F04000885
:1000300041040008000000004304000845040008D3
:10004000F9070008F9070008F9070008F907000890
:10005000F9070008F9070008F9070008F907000880
:10006000F9070008F9070008F9070008F907000870
:10007000F9070008F9070008F9070008F907000860
:10008000F9070008F9070008F90700080000000058
:10009000000000000000000000000000F907000858
:1000A000F9070008F9070008F9070008F907000830
:1000B000F9070008F9070008F9070008F907000820
:1000C000F90700080000000000000000F907000820
:1000D000F9070008F9070008F9070008F907000800
:1000E000F9070008F9070008F907000800000000F8
:1000F0000000000000000000000000000000000000
:1001000000000000000000000000000000000000EF
:100110000000000000000000F9070008F9070008CF
:1001200000000000000000000000000000000000CF
:1001300000000000000000000000000000000000BF
:1001400000000000000000000000000000000000AF
:10015000000000000000000000000000000000009F
:10016000000000000000000000000000000000008F
:10017000000000000000000000000000000000007F
:10018000000000000000000000000000000000006F
:10019000000000000000000000000000000000005F
:1001A000000000000000000000000000000000004F
:1001B000000000000000000000000000000000003F
:1001C0000000000000000000000000005FF808F1DF
:1001D00010B5054C237833B9044B13B10448AFF381
:1001E00000800123237010BD0800002000000000E3
:1001F0004408000808B5034B1BB103490348AFF39B
:10020000008008BD000000000C0000204408000829
:100210002DE9F74F00221646644F654BDFF894C175
:10022000DFF894E10D6835FA06F402D103B0BDE8B9
:10023000F08F4FF0010808FA06F805EA080438EADA
:1002400005057BD14D68032D07D8013D022D00F235
:100250008880DFE805F0969BA100122D00F09980C0
:100260006ED8112D00F08F80FF2C98BF82464FF082
:100270000F0988BF00F1040A4FEA8605DAF800800A
:1002800088BF203D09FA05FB28EA0B0802FA05F5AC
:1002900048EA0505CAF80050D1F804A01AF0805FBA
:1002A0004CD0BD6926F0030845F00105BD61BD696C
:1002B00008F1804805F00105019508F5803806F041
:1002C000030B019D4FEA8B0BD8F8085009FA0BF984
:1002D00025EA0909394DA84262D005F58065A84292
:1002E00060D005F58065A8425ED005F58065A8421E
:1002F0000CBF0325042505FA0BF545EA0905C8F8E6
:1003000008509D681AF4801F14BF2543A5439D60C3
:10031000DD681AF4001F14BF2543A543DD605D6846
:100320001AF4003F14BF2543A5435D601D681AF40D
:10033000803F14BF2C4325EA04041C60013671E79A
:10034000DFF87C904D450CD017D8A9F580194D45A4
:1003500007D009F570294D4503D0A9F580194D4501
:1003600082D18A68D2B1012A08BFC0F810804FF04C
:10037000080218BFC0F8148076E76545F1D07545CE
:10038000EEE7CA6870E7CA6804326DE7CA680832E7
:100390006AE7CA680C3267E7002265E7042263E770
:1003A0000025A8E70125A6E70225A4E700100240E2
:1003B000000401400000311000003210000801402C
:1003C000000022104FF47A72184930B50B68B3FB65
:1003D000F2F3013BB3F1807F27D24FF0E02253616B
:1003E000F023134C072584F8233000230F28936152
:1003F00015611AD8E268C2F30222AC1A042C02F189
:10040000040528BF0424062D98BF1A464FF0FF3379
:1004100003FA04F388BF033A20EA030393401B0165
:10042000034ADBB282F82330486030BD0000002070
:1004300000ED00E0FEE7FEE7FEE7FEE7FEE77047BF
:1004400070477047024A136801331360704700BF5A
:100450002400002070B51B4B104693F84520202A3D
:100460001CD1D9B182B2CAB1212500249C6483F881
:1004700045501D681A855A85DA68B2F5805F03D148
:100480005A690AB90C4611465E685D8DADB235B940
:1004900032685206FCD5202283F8452070BD3268B0
:1004A0001506FCD549B934F8025BC5F3080575603B
:1004B0005D8D013DADB25D85E7E711F8012B7260FE
:1004C000F6E700BF24000020704700BFAA4AAB49EE
:1004D000136880B543F010031360CA68A84B22F478
:1004E000E0621204120CA74C13438AB0CB600F20B9
:1004F000FFF768FFA36943F00103A361A36903F059
:1005000001030393039BE36943F08053E361E369D1
:1005100003F080530293029B636813F00C0F07D023
:10052000636803F00C03082B1CD16368DE0319D445
:100530002368236823F0F80343F0800323608E4B85
:100540001B68636843F4E0636360636843F460536B
:100550006360636823F0F0036360236898070FD437
:1005600072B6FEE70122884B1A60884A1168236838
:100570009D07DED413685B1A022BF8D972B6FEE72A
:1005800041F288316368814E23F00303636032686F
:10059000636813F00C0F40F0CE80774B1A68510758
:1005A00040F0CF8063687A4F23F4E0636360636850
:1005B00023F460536360636803F00C02082A00F0C0
:1005C000C980744D4FF0000863684FF00209C3F30F
:1005D00003133B449B7CDD406F4B58681D60FFF765
:1005E000F1FECDF82080A3696C4843F00403A361B9
:1005F000A369072203F004030193019BA36906A9E1
:1006000043F00803A361A36903F008030093009B70
:100610004FF4E02303610123CDF82490CDE90623B4
:10062000FFF7F6FD4FF4E1335D4896F84520C6E943
:1006300001030C23C6E90388C6E90638C6F814800E
:10064000C6F8208002F0FF0312BBCDE9073386F81D
:1006500044300993E369534843F40033E361E369A9
:1006600003F400330593059BA36943F00403A361DE
:10067000A36903F004030493049B09230693FFF783
:10068000C7FD0623CDE9063903230993FFF7C0FD13
:100690002423726886F84530D368316923F4005307
:1006A000D3601369706923F440530B431361F368FB
:1006B000D1680343B06921F4B051034321F00C0128
:1006C0000B43D3605369F16923F440730B435361C7
:1006D000354B64219A4263680CBFC3F3C223C3F352
:1006E00002231F4497F82230DD4019235D43B3688D
:1006F0009B00B5FBF3F5B5FBF1F001FB10531B01BB
:100700003233B3FBF1F303EB00139360136923F46B
:1007100090431361536923F02A035361D36843F470
:100720000053D36000232022B36486F8452086F866
:100730004620B363FEE733689B1A8B427FF628AFEF
:100740000EE71A6822F007021A601B685A077FF446
:1007500007AF27E7C3F38342DB03BD5C09D56368BA
:100760000C4AC3F3404355433B441B7CB5FBF3F5B4
:1007700028E70E4B5D4325E70020024000ED00E036
:100780000003FA050010024000004242240000204D
:100790005C08000800127A0000000020000C0140F4
:1007A00000440040000801400038014000093D00BD
:1007B000FFF78AFE0B480C490C4A002302E0D4588C
:1007C000C4500433C4188C42F9D3094A094C00239D
:1007D00001E013600432A242FBD300F00FF8FFF7F0
:1007E00075FE7047000000200800002090080008F7
:1007F0000800002070000020FEE7000070B5002611
:100800000C4D0D4C641BA410A64209D100F01AF83F
:1008100000260A4D0A4C641BA410A64205D170BDE7
:1008200055F8043B98470136EEE755F8043B9847E6
:100830000136F2E7880800088808000888080008E0
:100840008C080008F8B500BFF8BC08BC9E4670478D
:0C085000F8B500BFF8BC08BC9E4670471D
:10085C0002030405060708090A0B0C0D0E0F1010F5
:10086C000102000000000000000001020304060762
:0C087C0008090000000001020304000055
:04088800F50100086E
:04088C00D10100088E
:080890000024F4001000000038
:04000005080007B137
:00000001FF
