:020000040800F2
:10000000001000203D0600083504000837040008F1
:10001000390400083B0400083D040008000000000B
:100020000000000000000000000000003F04000885
:1000300041040008000000004304000845040008D3
:100040008506000885060008850600088506000864
:100050008506000885060008850600088506000854
:100060008506000885060008850600088506000844
:100070008506000885060008850600088506000834
:1000800085060008850600088506000800000000B7
:1000900000000000000000000000000085060008CD
:1000A0008506000885060008850600088506000804
:1000B00085060008850600088506000885060008F4
:1000C000850600080000000000000000850600080A
:1000D00085060008850600088506000885060008D4
:1000E0008506000885060008850600080000000057
:1000F0000000000000000000000000000000000000
:1001000000000000000000000000000000000000EF
:1001100000000000000000008506000885060008B9
:1001200000000000000000000000000000000000CF
:1001300000000000000000000000000000000000BF
:1001400000000000000000000000000000000000AF
:10015000000000000000000000000000000000009F
:10016000000000000000000000000000000000008F
:10017000000000000000000000000000000000007F
:10018000000000000000000000000000000000006F
:10019000000000000000000000000000000000005F
:1001A000000000000000000000000000000000004F
:1001B000000000000000000000000000000000003F
:1001C0000000000000000000000000005FF808F1DF
:1001D00010B5054C237833B9044B13B10448AFF381
:1001E00000800123237010BD0800002000000000E3
:1001F000D006000808B5034B1BB103490348AFF311
:10020000008008BD000000000C000020D00600089F
:100210002DE9F74F00221646644F654BDFF894C175
:10022000DFF894E10D6835FA06F402D103B0BDE8B9
:10023000F08F4FF0010808FA06F808EA050438EADA
:1002400005057BD14D68032D07D8013D022D00F235
:100250008880DFE805F0969BA100122D00F09980C0
:100260006ED8112D00F08F80FF2C98BF82464FF082
:100270000F0988BF00F1040A4FEA8605DAF800800A
:1002800088BF203D09FA05FB28EA0B0802FA05F5AC
:1002900048EA0505CAF80050D1F804A01AF0805FBA
:1002A0004CD0BD6926F0030845F00105BD61BD696C
:1002B00008F1804805F00105019508F5803806F041
:1002C000030B019D4FEA8B0BD8F8085009FA0BF984
:1002D00025EA0909394DA84262D005F58065A84292
:1002E00060D005F58065A8425ED005F58065A8421E
:1002F0000CBF0325042505FA0BF545EA0905C8F8E6
:1003000008509D681AF4801F14BF2543A5439D60C3
:10031000DD681AF4001F14BF2543A543DD605D6846
:100320001AF4003F14BF2543A5435D601D681AF40D
:10033000803F14BF2C4325EA04041C60013671E79A
:10034000DFF87C904D450CD017D8A9F580194D45A4
:1003500007D009F570294D4503D0A9F580194D4501
:1003600082D18A68D2B1012A08BFC0F810804FF04C
:10037000080218BFC0F8148076E76545F1D07545CE
:10038000EEE7CA6870E7CA6804326DE7CA680832E7
:100390006AE7CA680C3267E7002265E7042263E770
:1003A0000025A8E70125A6E70225A4E700100240E2
:1003B000000401400000311000003210000801402C
:1003C000000022104FF47A72184930B50B68B3FB65
:1003D000F2F3013BB3F1807F27D24FF0E02253616B
:1003E000F023134C072584F8233000230F28936152
:1003F00015611AD8E268C2F30222AC1A042C02F189
:10040000040528BF0424062D98BF1A464FF0FF3379
:1004100003FA04F388BF033A20EA030393401B0165
:10042000034ADBB282F82330486030BD0000002070
:1004300000ED00E0FEE7FEE7FEE7FEE7FEE77047BF
:1004400070477047024A136801331360704700BF5A
:1004500024000020704700BF6D4A6E49136800B544
:1004600043F010031360CA686B4B22F4E06212047D
:10047000120C6A4C134389B0CB600F20FFF7A2FF28
:10048000A36943F00103A361A36903F0010303938C
:10049000039BE36943F08053E361E36903F0805316
:1004A0000293029B636813F00C0F07D0636803F09C
:1004B0000C03082B1CD16368DD0319D4236823685F
:1004C00023F0F80343F080032360514B1B686368FB
:1004D00043F4E0636360636843F46053636063689C
:1004E00023F0F003636023689B070FD472B6FEE726
:1004F00001224B4B1A604B4A116823689807DED4DF
:1005000013685B1A022BF8D972B6FEE741F2883104
:100510006368444D23F0030363602A68636813F043
:100520000C0F56D13A4B1A68560757D163683E4AAA
:1005300023F4E0636360636823F46053636061687D
:1005400001F00C03082B51D0384B00266168384865
:10055000C1F303110A44927CD34003604068FFF763
:1005600031FF0696A369082243F00403A361A3693F
:1005700004A903F004030193019BA36943F008035A
:10058000A361A3692B4C03F008030093009B4FF475
:10059000002323610123CDE904230223204607938E
:1005A000FFF736FE042304F58060CDE90436069695
:1005B000FFF72EFEE3681A04DB4302F4002203F087
:1005C0000803134323612A682B689B1A642BFBD909
:1005D000F0E72B689B1A8B42A0D987E71A6822F0B4
:1005E00007021A601B68580780D19FE7C1F3834355
:1005F000C903D35C09D561680C48C1F3404143434A
:100600001144097CB3FBF1F39FE70B494B439CE793
:100610000020024000ED00E00003FA050010024057
:100620000000424224000020E806000800127A0080
:10063000000000200008014000093D00FFF70AFF0C
:100640000B480C490C4A002302E0D458C450043330
:10065000C4188C42F9D3094A094C002301E0136005
:100660000432A242FBD300F00FF8FFF7F5FE70470B
:1006700000000020080000201407000808000020E7
:1006800028000020FEE7000070B500260C4D0D4C40
:10069000641BA410A64209D100F01AF800260A4DE6
:1006A0000A4C641BA410A64205D170BD55F8043B4A
:1006B00098470136EEE755F8043B98470136F2E7D4
:1006C0000C0700080C0700080C07000810070008BA
:1006D000F8B500BFF8BC08BC9E467047F8B500BF2F
:0806E000F8BC08BC9E467047FF
:1006E80002030405060708090A0B0C0D0E0F10106B
:1006F80001020000000000000000010203040607D8
:0407080008090000DC
:04070C00F5010008EB
:04071000D10100080B
:080714000024F40010000000B5
:040000050800063DAC
:00000001FF
