:100000000C9434000C9446000C9446000C94A3000D
:100010000C9446000C9446000C9446000C94460048
:100020000C9446000C9446000C9446000C94460038
:100030000C9446000C9446000C9446000C94460028
:100040000C9446000C9446000C9446000C94460018
:100050000C9446000C9446000C9446000C94460008
:100060000C9446000C94460011241FBECFEFD8E03C
:10007000DEBFCDBF21E0A0E0B1E001C01D92A43001
:10008000B207E1F70E9448000C94F3000C940000C2
:100090001092C1008FEF8AB91BB814B885B1846083
:1000A00085B9EBE6F0E0808184608083E8E6F0E0EB
:1000B0008081816080837894EFE6F0E080818160C8
:1000C0008083E1E8F0E080818460808332E0809189
:1000D00000018111FCCF832F81608BB92FEF44E3A6
:1000E0005CE0215040405040E1F700C0000090919A
:1000F00000019111FCCF832F82608BB98FEF24E335
:100100004CE0815020404040E1F700C0000022E078
:1001100012C0330F292F809100018111FCCF832F52
:10012000822B8BB95FEF84E34CE05150804040401C
:10013000E1F700C00000203849F2321751F32223C2
:1001400031F2220FE8CF1F920F920FB60F921124B7
:100150002F933F934F936F937F938F939F93EF933F
:10016000FF934FB7F89483B18695869591E08927E0
:100170008170EBE6F0E090819B7F9083209184007A
:10018000309185006091010170910201261B370BAF
:10019000293F310590F09091000121E0911120E07C
:1001A000909100019227909300012091840030915A
:1001B0008500309302012093010180930301EBE657
:1001C000F0E08081846080834FBFFF91EF919F9129
:1001D0008F917F916F914F913F912F910F900FBE13
:0A01E0000F901F901895F894FFCFC0
:00000001FF
