:100000000C9434000C9449000C9449000C94490061
:100010000C9449000C9496000C9449000C944900EF
:100020000C9449000C9449000C9449000C9449002C
:100030000C9449000C9449000C9449000C9449001C
:100040000C9449000C9449000C9449000C9449000C
:100050000C9449000C9449000C9449000C944900FC
:100060000C9449000C94490011241FBECFEFD8E036
:10007000DEBFCDBF11E0A0E0B1E0E6E6F1E002C0F6
:1000800005900D92A230B107D9F70E944B000C9455
:10009000B1000C9400001092C1008FEF8AB91BB818
:1000A00014B87894E8E6F0E0808181608083EBE624
:1000B000F0E080818460808383E08BB92FEF34E3AC
:1000C0004CE0215030404040E1F700C0000082E0A9
:1000D0008BB98FEF94E32CE0815090402040E1F702
:1000E00000C0000081E091E01BC09F5F21E030E094
:1000F000A901092E02C0440F551F0A94E2F7082EE9
:1001000002C0220F331F0A94E2F7422B4BB93FEF94
:1001100044E32CE0315040402040E1F700C00000B3
:10012000873051F2981709F38F5FE0CF1F920F923B
:100130000FB60F9211248F939F939091000181E04D
:10014000911180E08093000180910001811102C033
:100150001A9BFECF9F918F910F900FBE0F901F9013
:060160001895F894FFCF92
:02016600010096
:00000001FF
