:100000000C9434000C943E000C943E000C943E0082
:100010000C943E000C943E000C943E000C943E0068
:100020000C943E000C943E000C943E000C943E0058
:100030000C943E000C943E000C943E000C943E0048
:100040000C943E000C943E000C943E000C943E0038
:100050000C943E000C943E000C943E000C943E0028
:100060000C943E000C943E0011241FBECFEFD8E04C
:10007000DEBFCDBF0E947C000C949E000C9400005B
:10008000262F372F803150F4803130F4E82FF0E004
:10009000E056FF4F0C94980080E005C08D3F41F181
:1000A0008E3F41F58EE3411180682130310509F022
:1000B0008095089586E0F7CF8BE5F5CF8FE4F3CFF9
:1000C00086E6F1CF8DE6EFCF8DE7EDCF8FE7EBCF73
:1000D0008FE6E9CF87E7E7CF8CE7E5CF89E3E3CF8A
:1000E0008EE5E1CF89E7DFCF81E7DDCF8FE3DBCF9F
:1000F00080E4D9CF80E0D7CF1092C1008FEF8AB9CA
:100100008BB9C0E00AC0CF5F2FEF89E698E121509C
:1001100080409040E1F700C0000040E060E070E007
:100120008C2F0E9440008BB9CF3069F7C0E0ECCF34
:10013000EE0FFF1F0590F491E02D0994F894FFCF86
:1001400076005A005C005E006000620064005300AC
:10015000660068006A006C006E0070007200740037
:00000001FF
