:020000020000FC
:100000000C9462000C9462000C9462000C946200E8
:100010000C9462000C9462000C9462000C946200D8
:100020000C9462000C9462000C9462000C946200C8
:100030000C9462000C9462000C9462000C946200B8
:100040000C9462000C9462000C9462000C946200A8
:100050000C9462000C9462000C9462000C94620098
:100060000C9462000C9462003BE03BB93AE03AB970
:1000700002E011E0302F312B3BB90ED0011711F007
:10008000110F03C00078A1F7000F302F312B3BB9BF
:1000900003D0F4CF0C94380029E236E94DE74A95B5
:1000A000F1F73A95E1F72A95D1F700C0089529E2D2
:1000B00036E94DE74A95F1F73A95E1F72A95D1F7F8
:1000C00000C008953FEF3DBF38E03EBF0C943400C0
:00000001FF
