:020000020000FC
:100000000C9463000C9463000C9463000C946300E4
:100010000C9463000C9463000C9463000C946300D4
:100020000C9463000C9463000C9463000C946300C4
:100030000C9463000C9463000C9463000C946300B4
:100040000C9463000C9463000C9463000C946300A4
:100050000C9463000C9463000C9463000C94630094
:100060000C9463000C9463002FEF30E03BB92AB985
:1000700002E011E0302F312B3BB90FD0011729F0EE
:100080001123B9F3AAF3110F02C0000F1070302F23
:10009000312B3BB902D0F2CFEBCF29E236E94DE765
:1000A0004A95F1F73A95E1F72A95D1F700C00895FE
:1000B00029E236E94DE74A95F1F73A95E1F72A95B5
:1000C000D1F700C008953FEF3DBF38E03EBF0C942C
:0200D0003400FA
:00000001FF
